:1000000014040020E1030000D5030000D503000024
:1000100080B400AF40F21843C2F2000340F2650220
:10002000C0F200021A60BD4680BC704780B400AFC9
:1000300040F21843C2F2000340F24902C0F200024B
:100040001A60BD4680BC704780B500AF40F21443D3
:10005000C2F200034FF000021A704FF0010000F0EE
:1000600083F880BD80B500AF40F21443C2F20003B4
:100070004FF001021A704FF0000000F075F880BDDB
:1000800080B400AF40F21C43C2F2000340F2011200
:10009000C0F200021A60BD4680BC704780B500AF58
:1000A00040F22043C2F200034FF000021A70FFF743
:1000B000BDFF40F21C43C2F2000340F29D02C0F2B9
:1000C00000021A6080BD00BF80B500AF40F220433F
:1000D000C2F200034FF002021A7040F20003C2F2B3
:1000E00000031B68184600F021F840F21C43C2F2DE
:1000F000000340F29D02C0F200021A6080BD00BF02
:1001000080B500AF40F22043C2F200034FF001027D
:100110001A70FFF77DFF40F21C43C2F2000340F269
:10012000C902C0F200021A6080BD00BF80B483B073
:1001300000AF786003E07B6803F1FF337B607B688E
:10014000002BF8D107F10C07BD4680BC704700BFFB
:1001500080B400AF40F60803C4F201031B68DBB2B1
:100160001846BD4680BC704780B483B000AF78604D
:100170007B68012B0CD140F60C03C4F2010340F65E
:100180000C02C4F20102126842F400521A600EE03E
:100190007B68002B0BD140F60C03C4F2010340F640
:1001A0000C02C4F20102126822F400521A6007F134
:1001B0000C07BD4680BC704780B400AF41F2180305
:1001C000C4F2020341F21802C4F20202126842F0C1
:1001D00004021A604FF40063C4F201034FF400629A
:1001E000C4F20102126822F470021A604FF4006334
:1001F000C4F201034FF40062C4F2010212681A60F3
:1002000040F60403C4F2010340F60402C4F2010202
:10021000126822F470021A6040F60403C4F201036B
:1002200040F60402C4F20102126842F022321A605F
:10023000BD4680BC704700BF80B500AFFFF7BCFF74
:1002400040F22843C2F2000340F27D32C0F20002C5
:100250001A6040F22443C2F2000340F24932C0F275
:1002600000021A6040F21843C2F2000340F2490251
:10027000C0F200021A6040F21C43C2F2000340F2D6
:100280009D02C0F200021A6080BD00BF80B500AFC1
:10029000FFF7D2FFFFF790FF40F22443C2F20003C2
:1002A0001B68984740F21C43C2F200031B68984742
:1002B00040F21843C2F200031B6898474FF00A004F
:1002C000FFF734FFE8E700BF80B483B000AF786089
:1002D00040F20403C2F200031B687A689A4209DD07
:1002E00040F22443C2F2000340F21132C0F2000295
:1002F0001A6008E040F22443C2F2000340F249329F
:10030000C0F200021A6007F10C07BD4680BC7047BE
:1003100080B500AF40F22143C2F200034FF000026B
:100320001A70FFF7ADFEFFF713FF024640F20C0311
:10033000C2F200031A6040F20C03C2F200031B6811
:100340001846FFF7C1FF80BD80B500AF40F22143E2
:10035000C2F200034FF001021A70FFF7F9FE0246E5
:1003600040F20C03C2F200031A6040F20C03C2F226
:1003700000031B681846FFF7A7FF80BD80B500AFDC
:1003800040F22243C2F200034FF000021A70FFF75E
:10039000DFFE024640F21003C2F200031A6040F290
:1003A0001003C2F200031B681846FFF78DFF80BDE3
:1003B00080B500AF40F20803C2F200031B68184684
:1003C000FFF7B4FE40F22843C2F200034FF00002F0
:1003D0001A6080BD80B500AF00F002F880BD00BF9C
:1003E00080B586B000AF40F20C02C2F2000240F2CB
:1003F0000003C2F20003D31ABB6040F29043C0F284
:1004000000033B6140F20003C2F20003FB604FF0C7
:1004100000037B610FE03B691A78FB681A70FB6888
:1004200003F10103FB603B6903F101033B617B695D
:1004300003F101037B617A69BB689A42EBD340F216
:100440001442C2F2000240F20C03C2F20003D31ABB
:100450007B6040F20C03C2F20003FB604FF000032C
:100460007B610BE0FB684FF000021A70FB6803F140
:100470000103FB607B6903F101037B617A697B689F
:100480009A42EFD3FFF702FF07F11807BD4680BD80
:0C0490003C0000001400000064000000AC
:00000001FF
